:100000000C94E3000C943D130C946A130C940B01B4
:100010000C940B010C940B010C940B010C940B0130
:100020000C940B010C940B010C940B010C940B0120
:100030000C940B010C940B010C940B010C940B0110
:100040000C9497130C940B010C9429060C946C06D9
:100050000C940B010C940B010C940B010C940B01F0
:100060000C940B010C940B0100000007000201002E
:100070000003040600000000000000000102040864
:100080001020408001020408102001020408102002
:10009000040404040404040402020202020203032E
:1000A00003030303000000002300260029000000D2
:1000B0000000250028002B0000000000240027007D
:1000C0002A00005EBCE2613FDD83C29C7E20A3FD6E
:1000D0001F419DC3217FFCA2401E5F01E3BD3E6026
:1000E00082DC237D9FC1421CFEA0E1BF5D0380DE58
:1000F0003C62BEE0025CDF81633D7C22C09E1D430A
:10010000A1FF4618FAA427799BC584DA3866E5BBB7
:100110005907DB856739BAE406581947A5FB7826E5
:10012000C49A653BD987045AB8E6A7F91B45C69817
:100130007A24F8A6441A99C7257B3A6486D85B05C9
:10014000E7B98CD2306EEDB3510F4E10F2AC2F7177
:1001500093CD114FADF3702ECC92D38D6F31B2ECA5
:100160000E50AFF1134DCE90722C6D33D18F0C52D7
:10017000B0EE326C8ED0530DEFB1F0AE4C1291CF89
:100180002D73CA947628ABF517490856B4EA693737
:10019000D58B5709EBB536688AD495CB2977F4AA65
:1001A0004816E9B7550B88D6346A2B7597C94A1497
:1001B000F6A8742AC896154BA9F7B6E80A54D78949
:1001C0006B354304280711241FBECFEFD8E0DEBFF4
:1001D000CDBF11E0A0E0B1E0E8E8F1E302C0059096
:1001E0000D92A03FB107D9F715E0A0EFB1E001C033
:1001F0001D92A13FB107E1F711E0C6ECD1E004C0C8
:100200002297FE010E94BE18C23CD107C9F70E9486
:100210007E070C94E2150C9400006DE071E08BE217
:1002200093E00C94C9070E94CD0A63E271E08BE26F
:1002300093E00C94C907DC01ED91FC910190F081F1
:10024000E02D0994CF93DF936BE271E08BE293E0B2
:100250000E94C9078EE192E00E94DD09EC0100973F
:1002600059F060E270E08BE293E00E941B01BE0156
:100270008BE293E00E94C90769EC71E08BE293E0A6
:10028000DF91CF910C94C907EF92FF920F931F93C8
:10029000CF93DF93CDB7DEB764970FB6F894DEBF88
:1002A0000FBECDBF0E94DE0A882309F453C07E0131
:1002B00081E1E80EF11CB701CE0143960E94E50AE8
:1002C00049895A896B897C89CE0101960E94E40B89
:1002D00060E371E08BE293E00E94C9078E010F5F3B
:1002E0001F4FF801619171918F014AE050E08BE25C
:1002F00093E00E948A0860E270E08BE293E00E9443
:100300001B010E151F0569F700E010E089899A8925
:1003100008171907B8F4A0912B03B0912C03C8015A
:10032000880F991FEB89FC89E80FF91F60817181A3
:10033000605D7F4FED91FC918BE293E009950F5F3B
:100340001F4FE4CF69EC71E08BE293E00E94C90794
:100350000E94F20A64960FB6F894DEBF0FBECDBFBE
:10036000DF91CF911F910F91FF90EF90089580EF53
:1003700091E00E946B1140E052EC61E070E08BE292
:1003800093E00E94A70644E653E06CE371E08EE13F
:1003900092E00E94AB0940EB53E06FE371E08EE125
:1003A00092E00E94AB094AE853E062E471E08EE11A
:1003B00092E00E94AB0940ED53E065E471E08EE10C
:1003C00092E00E94AB0940EF53E068E471E08EE1F7
:1003D00092E00E94AB0940EE52E06BE471E08EE1E6
:1003E00092E00E94AB0942E251E06BE271E08EE1E3
:1003F00092E00E94AB0942E053E06EE471E08EE1CE
:1004000092E00E94AB0940E154E062E571E08EE1C8
:1004100092E00E94AB0943E151E066E571E08EE1B4
:1004200092E00E94AB096DE071E08EE192E00E94E3
:10043000D90963E271E08BE293E00C94C9078EE185
:1004400092E00E94E7090C9444016CE571E08BE2B4
:1004500093E00C94C9078EE192E00E94DD090097B9
:1004600011F40C9425020E94C4150E94980A61E7B9
:1004700071E08BE293E00C94C9076F927F928F92A8
:100480009F92AF92BF92CF92DF92EF92FF920F9323
:100490001F93CF93DF93CDB7DEB760970FB6F89475
:1004A000DEBF0FBECDBF0DB71EB78EE192E00E943A
:1004B000DD09009719F40E94250263C00E94C4154B
:1004C0007C018EE192E00E94DD090097A1F30E9479
:1004D000C4156C01BE016F5F7F4F3B014E0171E19E
:1004E000870E911C53018EE192E00E94DD09009776
:1004F00011F30E94C415D3018D939D933D01A8155E
:10050000B90589F78EE192E00E94DD09009799F222
:10051000FC0101900020E9F7AF0141505109481B4F
:10052000590B9A01220F331F6DB77EB7621B730BF5
:100530000FB6F8947EBF0FBE6DBF6F5F7F4FFC019B
:10054000CB014F01840E951EE815F90581F021912C
:10055000D50132E02302A00DB11D1124A056B1092E
:100560002D913C91DC012D933D93CD01EDCF960172
:10057000C7010E94B90C61E771E08BE293E00E9431
:10058000C9070FB6F8941EBF0FBE0DBF0FB6F89483
:100590001EBF0FBE0DBF60960FB6F894DEBF0FBE34
:1005A000CDBFDF91CF911F910F91FF90EF90DF9022
:1005B000CF90BF90AF909F908F907F906F90089555
:1005C000CF93DF938EE192E00E94DD09EC0100976A
:1005D00021F4DF91CF910C94250267E771E00E942E
:1005E000F415892B21F4DF91CF910C943D026CE737
:1005F00071E0CE010E94F415892B59F7DF91CF915C
:100600000C942B02CF93DF938EE192E00E94DD09E0
:10061000009721F4DF91CF910C9425020E94C4151C
:10062000EC018EE192E00E94DD09009799F30E94AF
:10063000C415682F81E192E02B9719F40E94AA0D4E
:1006400002C00E94E70D8F3F2FEF920791F10097B4
:1006500029F0029689F56EE971E030C064E871E036
:100660008BE293E00E94C907409115025091160257
:10067000609117027091180221E030E08BE293E064
:100680000E947B0960E270E08BE293E00E941B0114
:100690004091110250911202609113027091140264
:1006A00021E030E08BE293E00E947B0969EC71E08D
:1006B00005C069E871E002C062EB71E08BE293E093
:1006C000DF91CF910C94C907CF93DF938EE192E035
:1006D0000E94DD09009721F4DF91CF910C9425024F
:1006E0000E94C4150E946805EC0164E871E08BE289
:1006F00093E00E94C907BE01605D7F4F8BE293E0EB
:100700000E941B0169EC71E08BE293E0DF91CF91D5
:100710000C94C907CF93DF938EE192E00E94DD092C
:10072000009721F4DF91CF910C9425020E94C4150B
:100730000E945404EC0164E871E08BE293E00E94B3
:10074000C9074AE050E0BE018BE293E00E947508C1
:1007500069EC71E08BE293E0DF91CF910C94C907D3
:10076000CF938EE192E00E94DD09009719F4CF91BA
:100770000C9425020E94C415C82F8EE192E00E94BD
:10078000DD090097A1F30E94C415682F8C2F0E94E9
:10079000320561E771E08BE293E0CF910C94C907D9
:1007A000CF938EE192E00E94DD09009719F4CF917A
:1007B0000C9425020E94C415C82F8EE192E00E947D
:1007C000DD090097A1F30E94C415BC018C2F0E9483
:1007D000710461E771E08BE293E0CF910C94C9075B
:1007E000CF938EE192E00E94DD09009719F4CF913A
:1007F0000C9425020E94C415C82F8EE192E00E943D
:10080000DD090097A1F30E94C415682F8C2F0E9468
:10081000F90461E771E08BE293E0CF910C94C90792
:10082000CF92DF92EF92FF928EE192E00E94DD097B
:10083000892B31F4FF90EF90DF90CF900C9425023C
:1008400080EF91E00E944D1260E080EF91E00E9405
:10085000E2126B017C0164E871E08BE293E00E949C
:10086000C90722E030E0B701A6018BE293E00E94C5
:100870007B0966EC71E08BE293E0FF90EF90DF90F4
:10088000CF900C94C90760E170E08EE192E00E9485
:100890007D0962E083E092E00E947A0F63E072E0FB
:1008A00080EF91E00C9442108E3008F08E508770EB
:1008B0002091040190E4299F90011124822B8093C0
:1008C0007C0080917A00806480937A0080917A0025
:1008D00086FDFCCF809178002091790090E0922BEA
:1008E00008951F93CF93DF93182FEB0161E00E94CF
:1008F000F904209711F460E004C0CF3FD10539F42A
:1009000061E0812FDF91CF911F910C943205E12F8F
:10091000F0E0E859FF4FE491E330F9F048F4E130BA
:10092000B9F0E230A1F584B5806284BDC8BD34C0A1
:10093000E630E9F0E73019F1E43049F580918000C4
:10094000806280938000D0938B00C0938A0024C083
:1009500084B5806884BDC7BD1FC080918000806859
:1009600080938000D0938900C093880015C0809147
:10097000B00080688093B000C093B3000DC0809138
:10098000B00080628093B000C093B40005C0C0384E
:10099000D1050CF0B5CFAFCFDF91CF911F91089566
:1009A000833081F028F4813099F08230A1F00895ED
:1009B0008630A9F08730B9F08430D1F4809180007E
:1009C0008F7D03C0809180008F7780938000089591
:1009D00084B58F7702C084B58F7D84BD08958091E2
:1009E000B0008F7703C08091B0008F7D8093B000FE
:1009F0000895CF93DF9390E0FC01E458FF4F2491DA
:100A0000FC01E057FF4F8491882349F190E0880F63
:100A1000991FFC01E854FF4FA591B49182559F4F57
:100A2000FC01C591D4919FB7611108C0F8948C91D5
:100A3000209582238C93888182230AC0623051F4EE
:100A4000F8948C91322F309583238C938881822B5C
:100A5000888304C0F8948C91822B8C939FBFDF9184
:100A6000CF9108950F931F93CF93DF931F92CDB72C
:100A7000DEB7282F30E0F901E859FF4F8491F901E2
:100A8000E458FF4F1491F901E057FF4F0491002300
:100A9000C9F0882321F069830E94D0046981E02F86
:100AA000F0E0EE0FFF1FE255FF4FA591B4919FB705
:100AB000F8948C91611103C01095812301C0812BA2
:100AC0008C939FBF0F90DF91CF911F910F9108954D
:100AD000CF93DF93282F30E0F901E859FF4F84913D
:100AE000F901E458FF4FD491F901E057FF4FC49149
:100AF000CC2391F081110E94D004EC2FF0E0EE0F96
:100B0000FF1FEC55FF4FA591B4912C912D2381E04F
:100B100090E021F480E002C080E090E0DF91CF918E
:100B20000895FC0124853585F901E05CFF4F808143
:100B30009181F901EE5BFF4F20813181821B930B84
:100B40008F7399270895FC0184859585FC01E05CED
:100B5000FF4F40815181FC01EE5BFF4F20813181CD
:100B60004217530741F00190F081E02DE80FF91F83
:100B7000808190E008958FEF9FEF0895FC018485B8
:100B80009585FC01E05CFF4F40815181FC01EE5BEB
:100B9000FF4F208131814217530779F0A081B18145
:100BA000A80FB91F8C91208131812F5F3F4F2F7388
:100BB00033273183208390E008958FEF9FEF0895CE
:100BC000FC0181A1882329F0A489B5898C9186FF35
:100BD000FBCF11A20895CF93DF93FC0126853785C3
:100BE000D901A05CBF4F8D919C91119701968F7395
:100BF0009927E901CE5BDF4F48815981841795071A
:100C0000D9F30D90BC91A02DA20FB31F6C93A685B4
:100C1000B785A05CBF4F11969C938E93A689B78928
:100C20002C9181E090E0078C02C0880F991F0A94F4
:100C3000E2F7282B2C9381E081A30488F589E02D2D
:100C400080818064808381E090E0DF91CF9108957E
:100C500008951F920F920FB60F9211242F933F9376
:100C60004F938F939F93EF93FF938091C00082FDEA
:100C70001CC04091C6008091D1039091D20301968F
:100C80008F7399272091D3033091D4038217930750
:100C900071F0E091D103F091D203EF56FC4F408305
:100CA0009093D2038093D10302C08091C600FF913C
:100CB000EF919F918F914F913F912F910F900FBE88
:100CC0000F901F9018958BE293E00E949105892B5D
:100CD00011F00C94280608951F920F920FB60F92F0
:100CE00011242F933F938F939F93EF93FF93209122
:100CF0008D0330918E0380918F039091900328177C
:100D0000390731F48091C1008F7D8093C10014C0F8
:100D1000E0918F03F0919003E35BFC4F2081809181
:100D20008F039091900301968F739927909390036E
:100D300080938F032093C600FF91EF919F918F9135
:100D40003F912F910F900FBE0F901F901895CF924B
:100D5000DF92EF92FF92CF93DF93EC016A017B0168
:100D6000411581EE580761057105F9F0EC89FD899F
:100D700081E090E008A002C0880F991F0A94E2F772
:100D8000808360E079E08DE390E0A70196010E9406
:100D90009A182150310941095109569547953795BF
:100DA0002795211580E1380798F0EC89FD8910829C
:100DB00060E874E88EE190E0A70196010E949A181D
:100DC0002150310941095109569547953795279585
:100DD000E889F9893083EA89FB89208319A2EE89A1
:100DE000FF89408181E090E09C010C8C02C0220FC1
:100DF000331F0A94E2F7422B4083EE89FF8940813A
:100E00009C010D8C02C0220F331F0A94E2F7422B83
:100E10004083EE89FF8940819C010E8C02C0220F25
:100E2000331F0A94E2F7422B4083EE89FF89208129
:100E30000F8C02C0880F991F0A94E2F780958223D5
:100E40008083DF91CF91FF90EF90DF90CF90089556
:100E500010922E0310922D0388EE93E0A0E0B0E0F4
:100E600080932F0390933003A0933103B093320308
:100E700080ED91E090932C0380932B0381E993E024
:100E800090933803809337038DE493E090933A0373
:100E90008093390385EC90E090933C0380933B036F
:100EA00084EC90E090933E0380933D0380EC90E0CF
:100EB0009093400380933F0381EC90E09093420332
:100EC0008093410382EC90E090934403809343032A
:100ED00086EC90E0909346038093450384E08093F2
:100EE000470383E08093480387E08093490385E0CC
:100EF00080934A0381E080934B0308950E9441143C
:100F00000E94B701C3E6D6E00E941F022097E1F3DA
:100F10000E946306F9CFCF92DF92EF92FF920F9378
:100F20001F93CF93DF936C017A01EB01E60EF71E5E
:100F300000E010E0CE15DF0561F06991D601ED917A
:100F4000FC910190F081E02DC6010995080F191F51
:100F5000F1CFC801DF91CF911F910F91FF90EF90DA
:100F6000DF90CF9008956115710581F0DB010D9040
:100F70000020E9F7AD0141505109461B570BDC0138
:100F8000ED91FC910280F381E02D099480E090E0E6
:100F900008950C94B307DC01ED91FC910190F08170
:100FA000E02D09948F929F92AF92BF92CF92DF92E1
:100FB000EF92FF920F931F93CF93DF93CDB7DEB7DE
:100FC000A1970FB6F894DEBF0FBECDBF7C01C42E33
:100FD000E52FCB01D22E19A221E02D1510F02AE029
:100FE000D22E8E010F5D1F4F8D2C912CA12CB12C78
:100FF0006C2D7E2FA50194010E949A188C2DD29EF3
:1010000080191124015011098A3014F4805D01C047
:10101000895CF8018083211531054105510521F0D6
:10102000C22EE32FCA01E4CFB801C7010E94B30763
:10103000A1960FB6F894DEBF0FBECDBFDF91CF9162
:101040001F910F91FF90EF90DF90CF90BF90AF90E6
:101050009F908F900895CF92DF92EF92FF920F931F
:101060001F93CF93DF93EC016A017B0121153105BA
:1010700079F4E881F9810190F081E02D642FDF910E
:10108000CF911F910F91FF90EF90DF90CF90099437
:101090002A303105E9F477FF1AC06DE20E94CB07D0
:1010A0008C0144275527BA014C195D096E097F0947
:1010B0002AE0CE010E94D207800F911FDF91CF91CD
:1010C0001F910F91FF90EF90DF90CF9008952AE04D
:1010D000B701A601CE01DF91CF911F910F91FF9033
:1010E000EF90DF90CF900C94D2079A01AB01662766
:1010F00057FD6095762F0C942B082115310541F48E
:10110000DC01ED91FC910190F081E02D642F0994B8
:101110000C94D2079A01AB0160E070E00C947D085A
:101120004F925F926F927F928F929F92AF92BF92F7
:10113000CF92DF92EF92FF920F931F93CF93DF93A3
:10114000EC016A017B01B22E9A01AB01C701B60125
:101150000E946B18882319F06CED71E027C02601FE
:101160003701E89477F82FEF3FEF4FE75FE7C301D0
:10117000B2010E946B1881110DC02FEF3FEF4FE7B6
:101180005FE7C301B2010E94B51618161CF460EEA9
:1011900071E00CC02FEF3FEF4FE75FE4C701B601EE
:1011A0000E9404181816ACF464EE71E0CE01DF91D1
:1011B000CF911F910F91FF90EF90DF90CF90BF9054
:1011C000AF909F908F907F906F905F904F900C9416
:1011D000B3072FEF3FEF4FE75FECC701B6010E9467
:1011E000B51687FDE1CF20E030E0A901C701B601C7
:1011F0000E94B51687FF0AC06DE2CE010E94CB07A0
:101200008C01F7FAF094F7F8F09402C000E010E0D7
:10121000A12C60E070E080E09FE3AB1441F020E09F
:1012200030E040E251E40E94B916A394F6CF9B014E
:10123000AC01C701B6010E9451166B017C010E94EE
:1012400026172B013C010E9452179B01AC01C701DC
:10125000B6010E9450166B017C012AE0B301A20185
:10126000CE010E94D207080F191FBB2039F068EE8B
:1012700071E0CE010E94B307080F191F7B2C772065
:1012800041F120E030E040E251E4C701B6010E94A4
:1012900008186B017C010E9421174B01AA2497FCBE
:1012A000A094BA2C2AE030E0B501A401CE010E943E
:1012B0002B08080F191FC501B4010E9454179B0188
:1012C000AC01C701B6010E9450166B017C017A94F3
:1012D000D6CFC801DF91CF911F910F91FF90EF9072
:1012E000DF90CF90BF90AF909F908F907F906F9046
:1012F0005F904F9008950C9490080F931F93CF9395
:10130000DF93EC018B01198218821A821C821B82E6
:101310008AE08F83FE01E75FFE4F11821082FE019B
:10132000E55FFE4F7183608367E871E0CE0105964B
:101330000E94FD151886FE01E85FFE4F10826BE0EB
:1013400070E0C8010E94A81599838883DF91CF912E
:101350001F910F9108950F931F93CF93DF93EC018B
:101360008A01AA812A2F30E0FC01E55FFE4F8081CF
:10137000918128173907C4F48881998148E050E0A9
:101380002BE0A29F800D911D11240E9412168A81CC
:10139000E881F9819BE0899FE00DF11D11241287FE
:1013A00001878A818F5F8A83DF91CF911F910F918F
:1013B0000895FC01748363830895AC01475F5E4F19
:1013C000BC016B5F7F4F80E090E00C9421162F9260
:1013D0003F924F925F926F927F928F929F92AF92C5
:1013E000BF92CF92DF92EF92FF920F931F93CF9312
:1013F000DF9300D000D0CDB7DEB79C838B837C0118
:1014000028EFE21A2EEFF20A875F9E4F9A838983B4
:101410002B803C8085E0280E311C4B805C8098E05E
:10142000490E511C8BE293E00E9491051816190693
:101430000CF067C08BE293E00E94BE05182FAB81D1
:10144000BC8117968C91181340C049815A81B10113
:10145000C2010E9421166C01009789F1EB81FC8189
:101460008280912C612C712CA12CB12CA814B90470
:10147000E4F4AB81BC810D911C91060D171D48E071
:1014800050E0B801C6010E940416BBE06B0E711C4F
:10149000892B39F4D8011996ED91FC911A97099589
:1014A0000EC0BFEFAB1ABB0AE1CFAB81BC81139674
:1014B000ED91FC911497309711F0C6010995EB81DD
:1014C000FC811086D7011C92ADCF812F992787FD13
:1014D00090950E94E715892B09F4A4CFF70180812C
:1014E0008F3F09F49FCF91E0980F9083EB81FC81AF
:1014F000E80FF11D1087EB81FC81E90FF11D1086CB
:1015000091CF0F900F900F900F90DF91CF911F917F
:101510000F91FF90EF90DF90CF90BF90AF909F9092
:101520008F907F906F905F904F903F902F90089595
:101530001F93CF93DF931F92CDB7DEB7182F109272
:10154000DF051092DE051092DF031092DE03109289
:10155000DD031092DC031092DB031092DA03109289
:10156000D90320910501309106012F3F8FEF3807F5
:1015700029F0822F99830E942D13998110930501E0
:101580009093060141E050E06BE27BE0812F0F90E9
:10159000DF91CF911F910C940D13809105019091D3
:1015A00006018F3F2FEF920711F00E942D138FEF4E
:1015B0009FEF9093060180930501089581E090913B
:1015C000DF03933009F080E0089520EE33E0FC0162
:1015D000318320838091DB039091DC03FB019183B5
:1015E000808308951092DF0308952091DE053091E5
:1015F000DF05A9015695479556954795B901641B96
:10160000750B6817790748F4240F351F41E08217DE
:10161000930708F040E0842F089580E008959093A8
:10162000DF058093DE051092DE031092DD0381E07A
:101630008093DF03089582E08093DF038091DD03D0
:101640009091DE039093DC038093DB031092DA0326
:101650001092D9030895CF93DF930E94ED13209148
:10166000D5033091D603EB01C21BD30B6093D50396
:101670007093D6038093D7039093D8038091DF03B0
:10168000813051F018F08230B1F19BC0C03A8FE048
:10169000D80708F496C022C0CE010E94F50A88231C
:1016A00099F08091DD039091DE03FC01EE0FFF1FA6
:1016B000E052FC4FD183C08301969093DE03809368
:1016C000DD0380975CF079C0C536D105B0F180911B
:1016D000DE059091DF058C179D0728F4CE01DF9180
:1016E000CF910C940F0B8091DD039091DE038E3F20
:1016F00091051CF542C04091D9035091DA03FA01DB
:10170000EE0FFF1FE052FC4F808191819C0163E04E
:10171000369527956A95E1F7BC017695679576959C
:101720006795260F371FBC01621B730B6C177D0773
:1017300038F0C03A8FE0D80768F51092DF0341C057
:10174000820F931FC817D907A0F7CA01019690937B
:10175000DA038093D9032091DB033091DC038217F5
:10176000930721F483E08093DF032BC08091DD0396
:101770009091DE038E3F910524F5FC01EE0FFF1FD3
:10178000E052FC4FD183C08301969093DE03809397
:10179000DD0317C08091DD039091DE038E3F91053C
:1017A00064F6FC01EE0FFF1FE052FC4FD183C083B3
:1017B00001969093DE038093DD03DF91CF910C942B
:1017C0001B0BDF91CF9108952F923F924F925F9222
:1017D0006F927F928F929F92AF92BF92CF92DF9241
:1017E000EF92FF920F931F93CF93DF93CDB7DEB7A6
:1017F000E0970FB6F894DEBF0FBECDBF4C012A01B3
:10180000FC0188E090E01192119201970097D9F7BE
:10181000FE01319680E2DF011D928A95E9F73E01D3
:10182000B1E26B0E711C80E1D3011D928A95E9F73C
:101830001B01E12CF12CE414F50409F45FC0510103
:10184000D1014D915D911D01940180E090E08901ED
:10185000D9016D917D919D016115710521F4D8012A
:101860004D935C9318C08B01A3E016950795AA953C
:10187000E1F76B01D694C794D694C7940C0D1D1D47
:101880006B01C01AD10AC416D50688F5600F711F06
:101890004617570760F5D5018D939C939C01220F45
:1018A000331F220F331F2E0F3F1FD901AD90BD9064
:1018B000CD90DC901397A40EB51EC11CD11CAD9227
:1018C000BD92CD92DC921397880F991F8E0F9F1FA8
:1018D000DC0190962D913C9191972F5F3F4F91960F
:1018E0003C932E9390978FEFE81AF80AA4CF0196B5
:1018F0008830910509F0ABCF80E022C07F016E01F6
:10190000B1E3CB0ED11C8401F301219131913F0150
:101910002115310561F040E050E0D7016D917D91D6
:101920008D919C910E949A18F80131832083F4E0F4
:10193000EF0EF11C0E5F1F4F6C147D0429F781E040
:10194000E0960FB6F894DEBF0FBECDBFDF91CF910A
:101950001F910F91FF90EF90DF90CF90BF90AF90CD
:101960009F908F907F906F905F904F903F902F90BF
:1019700008955F926F927F928F929F92AF92BF92E3
:10198000CF92DF92EF92FF920F931F93CF93DF934B
:10199000782E662E572E4A01590161E00E94F90403
:1019A00000E010E060E0872D0A151B05E1F00E94C1
:1019B0003205C62DD52DE12CF12CC12CD12CE814EB
:1019C000F90471F081E0C8266C2D872D0E94320544
:1019D000899199910E9436148FEFE81AF80AEFCF97
:1019E0000F5F1F4FDFCFDF91CF911F910F91FF90BE
:1019F000EF90DF90CF90BF90AF909F908F907F90AF
:101A00006F905F900C9432056F927F928F929F92AD
:101A1000AF92BF92CF92DF92EF92FF920F931F93FC
:101A2000CF93DF931F92CDB7DEB73C01B62EFC01FA
:101A30001086118612861386148661E08B2D4983E9
:101A40000E94F90460E08B2D0E9432054981642FC9
:101A500070E080E090E00E94101461E08B2D0E9405
:101A6000320588E290E00E94361460E08B2D0E94DF
:101A7000F90400E911E08B2D0E946805892B41F4DF
:101A80000150110901151105B1F78EEF9FEF52C0FA
:101A900000E911E08B2D0E946805019731F4015097
:101AA000110901151105B1F7F0CF98E2992E812C9B
:101AB00020E8A22E00E911E08B2D0E946805892BF9
:101AC00031F40150110901151105B1F7DECF0E9463
:101AD000ED136B017C0100E911E08B2D0E9468057C
:101AE000019731F40150110901151105B1F7CDCF5E
:101AF0000E94ED136C197D098E099F0969327105E9
:101B00008105910530F0F301E80DF11D80858A29EA
:101B10008087A69419F4839480E8A82E9A9451F6AD
:101B200061E08B2D0E94F90461E08B2D0E9432054B
:101B300080E090E00F90DF91CF911F910F91FF9087
:101B4000EF90DF90CF90BF90AF909F908F907F905D
:101B50006F9008950F931F93CF93DF93EC0142E1B1
:101B60000E94040D009769F040E050EC69E774ECC6
:101B7000488359836A837B834C835D836E837F8331
:101B800021C01885612F70E080E090E00E9452171C
:101B9000688379838A839B830A85602F70E080E065
:101BA00090E00E9452176C837D838E839F83100F79
:101BB00081E090E02C85211302C080E090E09195B7
:101BC00081959109DF91CF911F910F910895CF9346
:101BD000DF93EC0141E00E94040D009769F040E0C2
:101BE00050EC69E774EC488359836A837B834C83A8
:101BF0005D836E837F8341C0698588850E94A315BC
:101C0000BC0180E090E00E9452172DEC3CEC4CECC3
:101C10005DE30E940818688379838A839B838A85A1
:101C20006B858F770E94A315BC0180E090E00E9435
:101C300052172DEC3CEC4CEC5DE30E9408186C83D1
:101C40007D838E839F833A8537FF07C0DC01CB01FC
:101C5000B0588C839D83AE83BF832885230F8985ED
:101C6000280F8B85280F81E090E03C85321302C05D
:101C700080E090E0919581959109DF91CF91089551
:101C8000FF920F931F93CF93DF93FC010081C181DB
:101C9000D281F8948981F02EF0948F2189837894F1
:101CA0001DE7115029F182E090E00E9436148881EE
:101CB0008023B9F3F8948A818F218A838981802BCC
:101CC0008983789480EE91E00E943614F89489819B
:101CD0008F21898386E490E00E94361488818023D6
:101CE00011E009F010E078948AE991E00E9436143E
:101CF000812FDF91CF911F910F91FF9008951F9336
:101D0000CF93DF93FC011081C181D281912F9095F7
:101D100060FF12C0F8948A8189238A838981812B8C
:101D200089838AE090E00E9436148A81812B8A831D
:101D3000789487E390E011C0F8948A8189238A839C
:101D40008981812B898381E490E00E9436148A8105
:101D5000812B8A83789485E090E0DF91CF911F9169
:101D60000C9436140F931F93CF93DF93FC011081D3
:101D7000C181D281F8948981812B89838A81012F45
:101D8000009580238A8383E090E00E943614898145
:101D9000802389838AE090E00E943614C881789479
:101DA00085E390E00E9436141C2381E009F480E072
:101DB000DF91CF911F910F910895CF92DF92EF9213
:101DC000FF920F931F93CF93DF931F92CDB7DEB790
:101DD0006C01E62E08E010E0FF24F39461E09F2DF3
:101DE0009E2109F460E0C60149830E947F0EFF0C2A
:101DF0000150110949810115110581F7411115C0E3
:101E0000F894D6011196ED91FC91129791818C91E5
:101E10008095892381831196ED91FC91129792818F
:101E20008C9180958923828378940F90DF91CF9154
:101E30001F910F91FF90EF90DF90CF900895EF9258
:101E4000FF920F931F93CF93DF938C01C8E0D0E0F4
:101E5000F12CEE24E394C8010E94B20E8111FE28F9
:101E6000EE0C21972097B9F78F2DDF91CF911F911D
:101E70000F91FF90EF900895CF92DF92FF920F9312
:101E80001F93CF93DF931F92CDB7DEB78C01F62E51
:101E900040E065E579830E94DD0ECF2C7981D72E55
:101EA00088E0F82EF60161916F0140E0C8010E94C0
:101EB000DD0EFA94B9F70F90DF91CF911F910F913A
:101EC000FF90DF90CF90089540E06CEC0C94DD0E15
:101ED000FC0113861586148627E030E0DF01A20F8F
:101EE000B31F13961C922115310519F021503109A9
:101EF000F5CF08951F93CF93DF93EC01162F60E089
:101F0000812F0E94F904612F70E0FB01E458FF4F1C
:101F1000E491E883FB01E057FF4FE491F0E0EE0F1E
:101F2000FF1FEC55FF4F859194919A838983CE01D1
:101F3000DF91CF911F910C94680FAF92BF92CF9217
:101F4000DF92EF92FF920F931F93CF93DF931F9235
:101F5000CDB7DEB75C01E62ED72EFC018585811159
:101F60005DC0C5010E94400E811105C0F5011386B8
:101F7000158614866EC040E060EFC5010E94DD0E3C
:101F800001E0F12CC12C11E0C5010E94B20E682FB6
:101F9000C50169830E94B20E6981613019F48130F4
:101FA000B9F433C02F2D30E068131BC0F5018385D1
:101FB000181730F4E20FF31F8381802349F402C025
:101FC000181731F060E0193058F4F501148708C093
:101FD000F501EF0DF11D8381802B838361E009C042
:101FE000C12EF501E20FF31F8381902F9095892375
:101FF0008383C5010E947F0E1F5F000F11F4F394CD
:1020000001E0F7E0FF1508F0BFCF113438F0F5011B
:10201000C386C11018C081E0858715C0F5011386FD
:102020001586148680E0EE2DFD2D20E030E0D501F0
:10203000A20FB31F13969C9191932F5F3F4F2830AF
:102040003105A9F706C0F5018381882339F381E0C2
:10205000EACF0F90DF91CF911F910F91FF90EF90FA
:10206000DF90CF90BF90AF900895DC0180E0615089
:1020700038F0ED91E827F0E0EE53FF4F8491F7CF71
:1020800008950895FC0181E490E1928B818B768321
:1020900065831482108289E0818381E08283838357
:1020A0000895CF93DF93EB0167E0CE010E943510D6
:1020B00091E02F81821390E0892FDF91CF910895D5
:1020C000EF92FF920F931F93CF93DF93EC018B015D
:1020D000E42E8D819E810E94680FF12CB8018D81C4
:1020E0009E810E949D0F882359F0FE1006C0B80102
:1020F000CE010E945110811104C0F394EF1470F7C7
:1021000080E0DF91CF911F910F91FF90EF900895A4
:10211000EF92FF920F931F93CF93DF9300D0CDB731
:10212000DEB77C018A01FC018581968169837A830F
:102130000E94400E69817A81F701858196810E9413
:102140003C0F40E06EEBF701858196810E94DD0E29
:10215000F701858196810E941F0FF8018083F701A6
:10216000858196810E941F0FF8018183F701858187
:1021700096810E941F0FF8018283F7018581968165
:102180000E941F0FF8018383F701858196810E94C9
:102190001F0FF8018483F701858196810E941F0F2C
:1021A000F8018583F701858196810E941F0FF80150
:1021B0008683F701858196810E941F0FF80187832E
:1021C000F701858196810E941F0FF8018087F70132
:1021D000858196810F900F90DF91CF911F910F9184
:1021E000FF90EF900C94400ECF93DF93EA010E9492
:1021F000881068E0CE010E94351091E02885821396
:1022000090E0892FDF91CF910895EF92FF921F9375
:10221000CF93DF9300D0CDB7DEB77C01FC01858181
:10222000968169837A830E94400E69817A81F701E1
:10223000858196810E943C0F40E064EBF701858127
:1022400096810E94DD0EF701858196810E94B20E73
:10225000182FF701858196810E94400E81E01111AF
:1022600080E00F900F90DF91CF911F91FF90EF9042
:102270000895CF93DF93CDB7DEB729970FB6F894C3
:10228000DEBF0FBECDBFFB0120812031D1F0AE01FA
:102290004F5F5F4F0E94F410882379F08D818F3358
:1022A00051F020F48F3149F489E00CC08F3539F0BA
:1022B0008F3739F002C08AE005C080E003C08BE0B0
:1022C00001C08CE029960FB6F894DEBF0FBECDBFDB
:1022D000DF91CF910895EF92FF920F931F93CF93C9
:1022E000DF93CDB7DEB761970FB6F894DEBF0FBEB0
:1022F000CDBF8C01FC01858196810E94680FF80199
:102300001482FF24F394BE01665F7F4FF80185813C
:1023100096810E949D0F8823C9F1BE01665F7F4FA1
:10232000C8010E945110882371F3F8018081811146
:1023300008C0BE01665F7F4FC8010E940511811170
:1023400022C0AE014F5F5F4FBE01665F7F4FC80185
:102350000E948810F801E180BE01665F7F4FC801CE
:102360000E9439118E1518F4F801818106C0BE0152
:10237000665F7F4FC8010E943911F8018183848113
:102380008F5F8483C0CFF801F082DBCF61960FB6F8
:10239000F894DEBF0FBECDBFDF91CF911F910F919B
:1023A000FF90EF900895CF93DF93CDB7DEB72997D5
:1023B0000FB6F894DEBF0FBECDBFAE014F5F5F4FCB
:1023C0000E94881081E09981911101C080E02996D6
:1023D0000FB6F894DEBF0FBECDBFDF91CF91089549
:1023E0008F929F92AF92BF92CF92DF92EF92FF9225
:1023F0000F931F93CF93DF93EC018A0169506330F1
:1024000048F4E62FF0E0EE0FFF1FE651FE4F80810B
:10241000918102C08EEE92E04C01AA2497FCA09418
:10242000BA2C01151105E1F08B818823C9F0888150
:10243000811116C00E94E1136B017C01C80CD91CEC
:10244000EA1CFB1CB801CE010E94D311811118C0F7
:102450000E94E1136C157D058E059F0588F4F2CF6F
:10246000C501B401DF91CF911F910F91FF90EF90C3
:10247000DF90CF90BF90AF909F908F900C941014EE
:10248000DF91CF911F910F91FF90EF90DF90CF9050
:10249000BF90AF909F908F900895CF93DF93EC0102
:1024A0008D819E810E94400E8D819E810E94640FCD
:1024B000488164E48D819E810E94DD0E8A8188239B
:1024C00041F040E050E06981CE01DF91CF910C9462
:1024D000F011DF91CF910895FA01208148E0249F07
:1024E00090011124818190E0982F8827990F990FEE
:1024F000990F282B392BDB018C918031C1F4678136
:1025000070E08681AB01481B5109CA019695982F4E
:102510008827979587950E94861860517109207FBA
:1025200053E0220F331F5A95E1F7260F371FC901D9
:102530000895EF92FF920F931F93CF93DF93CDB740
:10254000DEB729970FB6F894DEBF0FBECDBF8C0162
:102550007B01AE014F5F5F4F0E94F410882341F072
:10256000AE014F5F5F4FB701C8010E946C1202C0FD
:1025700080E894EE29960FB6F894DEBF0FBECDBF6B
:10258000DF91CF911F910F91FF90EF9008958138C7
:1025900024EE920774F0BC01882777FD8095982F70
:1025A0000E94541720E030E040E05CE30E940818ED
:1025B000089560E070E08EEF92EC08950E94991209
:1025C0000C94C7120F931F93CF93DF93CDB7DEB751
:1025D00028970FB6F894DEBF0FBECDBF8C01462FF3
:1025E000BE016F5F7F4F0E946010882339F0BE01EB
:1025F0006F5F7F4FC8010E94DE1204C060E070E090
:102600008EEF92EC28960FB6F894DEBF0FBECDBFCA
:10261000DF91CF911F910F9108958230E8F4E82F58
:10262000F0E0EE0FFF1FE052FA4F718360838130BC
:1026300041F0809169008C7F842B80936900E89A37
:10264000089580916900440F551F440F551F837FE3
:10265000842B80936900E99A0895823068F4813070
:1026600011F0E89801C0E998E82FF0E0EE0FFF1FA5
:10267000E052FA4F1182108208951F920F920FB606
:102680000F9211242F933F934F935F936F937F93F8
:102690008F939F93AF93BF93EF93FF938091E00548
:1026A0009091E105892B29F0E091E005F091E10599
:1026B0000995FF91EF91BF91AF919F918F917F917C
:1026C0006F915F914F913F912F910F900FBE0F909F
:1026D0001F9018951F920F920FB60F9211242F93EF
:1026E0003F934F935F936F937F938F939F93AF939A
:1026F000BF93EF93FF938091E2059091E305892BBF
:1027000029F0E091E205F091E3050995FF91EF9141
:10271000BF91AF919F918F917F916F915F914F91F9
:102720003F912F910F900FBE0F901F9018951F9201
:102730000F920FB60F9211242F933F938F939F9375
:10274000AF93BF938091E5059091E605A091E705D1
:10275000B091E8053091E40523E0230F2D3720F4F4
:102760000196A11DB11D05C026E8230F0296A11DEB
:10277000B11D2093E4058093E5059093E605A093B1
:10278000E705B093E8058091E9059091EA05A091ED
:10279000EB05B091EC050196A11DB11D8093E905F3
:1027A0009093EA05A093EB05B093EC05BF91AF9130
:1027B0009F918F913F912F910F900FBE0F901F907F
:1027C00018952FB7F8946091E5057091E605809112
:1027D000E7059091E8052FBF08953FB7F8948091E1
:1027E000E9059091EA05A091EB05B091EC0526B5BD
:1027F000A89B05C02F3F19F00196A11DB11D3FBF39
:102800006627782F892F9A2F620F711D811D911DC8
:1028100042E0660F771F881F991F4A95D1F70895E8
:10282000CF92DF92EF92FF92CF93DF936B017C0107
:102830000E94ED13EB01C114D104E104F10479F01D
:102840000E94ED136C1B7D0B683E7340A0F381E08A
:10285000C81AD108E108F108C851DC4FECCFDF916C
:10286000CF91FF90EF90DF90CF9008950197009760
:1028700039F0880F991F880F991F02970197F1F778
:102880000895789484B5826084BD84B5816084BDE8
:1028900085B5826085BD85B5816085BDEEE6F0E0D9
:1028A000808181608083E1E8F0E010828081826035
:1028B0008083808181608083E0E8F0E080818160B6
:1028C0008083E1EBF0E0808184608083E0EBF0E0E6
:1028D000808181608083EAE7F0E08081846080838A
:1028E0008081826080838081816080838081806834
:1028F00080831092C1000895CF93DF9382309105B9
:1029000010F482E090E0E091EF05F091F00520E016
:1029100030E0A0E0B0E0309739F1408151814817B4
:102920005907B8F04817590771F4828193811097BD
:1029300029F013969C938E9312972CC09093F005D8
:102940008093EF0527C02115310531F04217530759
:1029500018F0A901DB0101C0EF019A01BD01DF01FF
:102960000280F381E02DD7CF21153105F9F0281B26
:10297000390B2430310580F48A819B816115710502
:1029800021F0FB019383828304C09093F005809330
:10299000EF05FE01329644C0FE01E20FF31F819362
:1029A000919322503109398328833AC02091ED0553
:1029B0003091EE05232B41F42091090130910A0159
:1029C0003093EE052093ED05209107013091080129
:1029D0002115310541F42DB73EB740910B015091BF
:1029E0000C01241B350BE091ED05F091EE05E2178B
:1029F000F307A0F42E1B3F0B2817390778F0AC0122
:102A00004E5F5F4F2417350748F04E0F5F1F5093FE
:102A1000EE054093ED058193919302C0E0E0F0E074
:102A2000CF01DF91CF910895CF93DF93009709F401
:102A300087C0FC01329713821282C091EF05D091BA
:102A4000F005209781F420813181280F391F809172
:102A5000ED059091EE058217930779F5F093EE0559
:102A6000E093ED056DC0DE0120E030E0AE17BF075A
:102A700050F412964D915C9113979D0141155105AB
:102A800009F1DA01F3CFB383A28340815181840F2E
:102A9000951F8A179B0771F48D919C911197840F54
:102AA000951F02969183808312968D919C91139726
:102AB000938382832115310529F4F093F005E09387
:102AC000EF053EC0D9011396FC93EE9312974D91FA
:102AD0005D91A40FB51FEA17FB0779F480819181FE
:102AE000840F951F0296D90111969C938E93828133
:102AF000938113969C938E931297E0E0F0E08A8185
:102B00009B81009719F0FE01EC01F9CFCE010296EE
:102B100028813981820F931F2091ED053091EE05B8
:102B20002817390769F4309729F41092F0051092AC
:102B3000EF0502C013821282D093EE05C093ED051B
:102B4000DF91CF91089570E09B01382BC901089562
:102B50000F931F93CF93DF93869F8001879F100D64
:102B6000969F100D1124C8010E947C14EC0100975F
:102B700029F0A80160E070E00E94ED15CE01DF9120
:102B8000CF911F910F910895FC0188279927E89410
:102B900021912032E9F3293010F02E30C8F32B3286
:102BA00041F02D3239F4689404C00E944816820F17
:102BB000911D219120532A30C0F31EF490958195E8
:102BC0009F4F0895F8940C94C218803209F0911127
:102BD00086C280528F55E0F70895DC0101C06D93E5
:102BE00041505040E0F70895FB01DC018D910190C8
:102BF00080190110D9F3990B0895FB01DC010190B4
:102C00000D920020E1F70895FB01DC014150504096
:102C100030F08D910190801919F40020B9F7881BCC
:102C2000990B0895FB01DC014150504048F00190A0
:102C30000D920020C9F701C01D9241505040E0F7AD
:102C40000895FA01A191B081009719F41097E1F06D
:102C5000CD01DC01CD010D90002011F4C00113C0A5
:102C6000FB012191222319F02015D9F7F3CFFB01A5
:102C70002191201519F41E92119606C02223C1F746
:102C80000D900020A1F7D001FA01A193B08308951F
:102C90007AE0979F902D879F802D910D11240895A4
:102CA0005058BB27AA270ED075C166D130F06BD122
:102CB00020F031F49F3F11F41EF45BC10EF4E09557
:102CC000E7FB51C1E92F77D180F3BA176207730789
:102CD0008407950718F071F49EF58FC10EF4E09506
:102CE0000B2EBA2FA02D0B01B90190010C01CA01C6
:102CF000A0011124FF27591B99F0593F50F4503E71
:102D000068F11A16F040A22F232F342F4427585F62
:102D1000F3CF469537952795A795F0405395C9F77A
:102D20007EF41F16BA0B620B730B840BBAF0915032
:102D3000A1F0FF0FBB1F661F771F881FC2F70EC0D1
:102D4000BA0F621F731F841F48F4879577956795A4
:102D5000B795F7959E3F08F0B3CF9395880F08F08D
:102D60009927EE0F979587950895D9D008F481E0BB
:102D700008950CD00FC107D140F0FED030F021F4FF
:102D80005F3F19F0F0C0511139C1F3C014D198F36D
:102D90009923C9F35523B1F3951B550BBB27AA27DC
:102DA00062177307840738F09F5F5F4F220F331F4E
:102DB000441FAA1FA9F333D00E2E3AF0E0E830D01A
:102DC00091505040E695001CCAF729D0FE2F27D01D
:102DD000660F771F881FBB1F261737074807AB07EB
:102DE000B0E809F0BB0B802DBF01FF2793585F4F60
:102DF0002AF09E3F510568F0B6C000C15F3FECF37A
:102E0000983EDCF3869577956795B795F7959F5F24
:102E1000C9F7880F911D9695879597F90895E1E078
:102E2000660F771F881FBB1F621773078407BA07D7
:102E300020F0621B730B840BBA0BEE1F88F7E09532
:102E4000089504D06894B111D9C00895BCD088F019
:102E50009F5790F0B92F9927B751A0F0D1F0660F86
:102E6000771F881F991F1AF0BA95C9F712C0B130A1
:102E700081F0C3D0B1E00895C0C0672F782F8827B4
:102E8000B85F39F0B93FCCF3869577956795B395E0
:102E9000D9F73EF490958095709561957F4F8F4F4F
:102EA0009F4F0895E89409C097FB3EF49095809554
:102EB000709561957F4F8F4F9F4F9923A9F0F92F00
:102EC00096E9BB279395F695879577956795B7957E
:102ED000F111F8CFFAF4BB0F11F460FF1BC06F5F64
:102EE0007F4F8F4F9F4F16C0882311F096E911C076
:102EF000772321F09EE8872F762F05C0662371F097
:102F000096E8862F70E060E02AF09A95660F771FAA
:102F1000881FDAF7880F9695879597F90895990F86
:102F20000008550FAA0BE0E8FEEF16161706E80793
:102F3000F907C0F012161306E407F50798F0621BB4
:102F4000730B840B950B39F40A2661F0232B242B89
:102F5000252B21F408950A2609F4A140A6958FEFA8
:102F6000811D811D089597F99F6780E870E060E0FA
:102F700008959FEF80EC089500240A941616170612
:102F800018060906089500240A941216130614065A
:102F900005060895092E0394000C11F4882352F0BD
:102FA000BB0F40F4BF2B11F460FF04C06F5F7F4F75
:102FB0008F4F9F4F089557FD9058440F551F59F05C
:102FC0005F3F71F04795880F97FB991F61F09F3F16
:102FD00079F087950895121613061406551FF2CF3F
:102FE0004695F1DF08C0161617061806991FF1CF8F
:102FF00086957105610508940895E894BB276627B6
:103000007727CB0197F908958ADF08F48FEF0895A9
:103010000BD0C0CFB1DF28F0B6DF18F0952309F050
:10302000A2CFA7CF1124EACFC6DFA0F3959FD1F39B
:10303000950F50E0551F629FF001729FBB27F00D66
:10304000B11D639FAA27F00DB11DAA1F649F6627BB
:10305000B00DA11D661F829F2227B00DA11D621F0A
:10306000739FB00DA11D621F839FA00D611D221FC4
:10307000749F3327A00D611D231F849F600D211DA8
:10308000822F762F6A2F11249F5750408AF0E1F04B
:1030900088234AF0EE0FFF1FBB1F661F771F881F94
:1030A00091505040A9F79E3F510570F05CCFA6CFDC
:1030B0005F3FECF3983EDCF3869577956795B7957F
:1030C000F795E7959F5FC1F7FE2B880F911D9695A9
:1030D000879597F9089523DF880B990B0895992711
:1030E00088270895AA1BBB1B51E107C0AA1FBB1F5D
:1030F000A617B70710F0A61BB70B881F991F5A9584
:10310000A9F780959095BC01CD01089597FB072EF6
:1031100016F4009407D077FD09D00E94721807FCBE
:1031200005D03EF4909581959F4F089570956195D7
:103130007F4F0895A1E21A2EAA1BBB1BFD010DC0F3
:10314000AA1FBB1FEE1FFF1FA217B307E407F50757
:1031500020F0A21BB30BE40BF50B661F771F881F33
:10316000991F1A9469F760957095809590959B01C9
:10317000AC01BD01CF010895EE0FFF1F0590F49142
:08318000E02D0994F894FFCF43
:103188000100000001FFFF0000F1058000455252D8
:1031980020756E6B6E6F776E5F636F6D6D616E64B9
:1031A8000D0A0072656164790D0A0050494E4700A6
:1031B8005246207265636569766520004452004472
:1031C8005700415200415700504D005246004448B4
:1031D800540044535400524553455400455252201C
:1031E800617267756D656E745F6572726F720D0AD4
:1031F8000041434B0D0A0073656E64007265636598
:103208006976650041434B2000455252206368654A
:10321800636B73756D5F6572726F720D0A0045524C
:10322800522074696D656F75745F6572726F720D87
:103238000A0045525220756E6B6E6F776E5F65722D
:10324800726F720D0A002031200D0A000000000084
:10325800EB058B079105BE05A305E0056E616E00C1
:10326800696E66006F7666002E005E00BC0077010E
:00000001FF
